:10000000A6C00000BFC00000BDC00000BBC0000013
:10001000B9C00000B7C00000B5C00000B3C0000008
:10002000B1C00000AFC00000ADC00000D2C40000ED
:10003000A9C00000A7C00000A5C00000A3C0000028
:10004000A1C000009FC000009DC000009BC0000038
:1000500099C0000097C0000095C0000093C0000048
:1000600091C000008FC000008DC000008BC0000058
:1000700089C00000240350004F004B004B00450096
:100080004E00200043004F004E00540052004F002D
:100090004C004C004500520000001C0348004F007B
:1000A00052004900200043004F002E002C004C005D
:1000B000540044002E000000040309040902290032
:1000C00001010080FA090400000203000000092178
:1000D0001101000122560007050203400005070533
:1000E000810340000512010002000000400D0F9244
:1000F0000000010102000105010905A1011500250B
:100100000135004501750195100509190129108176
:100110000205012507463B0175049501651409395F
:10012000814265009501810126FF0046FF000930EC
:100130000931093209357508950481020600FF0965
:1001400020950181020A212695089102C000112400
:100150001FBECFEFD2E0DEBFCDBF11E0A0E0B1E027
:10016000EAE2FEE002C005900D92A432B107D9F791
:1001700021E0A4E2B1E001C01D92A434B207E1F78E
:10018000C7D151C63DCF84B7877F84BF0FB6F894DF
:10019000A895809160008861809360001092600053
:1001A0000FBE80E890E00FB6F894809361009093C2
:1001B00061000FBEFFC30895089542E360EC82E042
:1001C0003CD342E361EC81E038C30895E8E0F1E01C
:1001D00090E080E020812B3139F001963396883011
:1001E0009105C1F790E080E00895CF93DF93EC0193
:1001F00088E0FE01982F11929A95E9F78A83809101
:1002000006018B83809104018C83809102018D8390
:10021000809100018E8380912C0190912D01181600
:100220001906A4F488E0EFE2F1E0DE0101900D92FE
:100230008A95E1F780912C0190912D01019790937F
:100240002D0180932C01DF91CF91089580912E0193
:10025000882369F08230A1F088E0FE01AFE2B1E0CE
:1002600001900D928A95E1F782E090E0E8CFAEDF51
:10027000909325018093240182E080932E01ECCF9E
:10028000809128019091290163E070E0BBD5FC01C9
:10029000E85FFE4F80818D3009F4CBC008F06EC05E
:1002A000863009F4ABC008F04FC0833009F449C070
:1002B00008F041C0813009F49BC0823009F49CC031
:1002C000882309F493C0E0912601F091270131962B
:1002D000F0932701E0932601209128013091290114
:1002E000C90163E070E08ED5DC01A85FBE4F1196B6
:1002F0008D919C918E179F0750F42F5F3F4F309345
:100300002901209328011092270110922601809143
:1003100028019091290109970CF49ECF8091240126
:100320009091250190932901809328011092270133
:100330001092260191CF843009F45DC0853019F602
:100340001C828FEF8B83BFCF8A3009F45FC060F4CB
:10035000883009F456C0893009F45DC0873009F04F
:10036000B2CF8FEF8C83EECF8B3009F05BC08FEF75
:1003700090E09093070180930601A5CF843109F4A2
:100380006DC0F8F4813109F46CC080F48F3009F449
:1003900055C0803109F45DC08E3009F094CF8FEFE5
:1003A00090E090930301809302018DCF823109F494
:1003B0005BC0833109F087CF84E090E09983888324
:1003C00082CF883109F456C048F4863109F44FC011
:1003D000873109F078CF80E092E0F0CF893109F4DD
:1003E0004CC08A3109F06FCF1A826DCF1C826BCF5F
:1003F0008FEF8C8368CF1C821B8265CF8FEF8C833D
:10040000FBCF10920501109204015DCF10920701FD
:100410001092060158CF8FEF90E0909305018093E2
:10042000040151CF80E890E090930701809306018A
:10043000F4CF109203011092020145CF80E890E0C2
:100440009093030180930201909301018093000136
:100450003ACF109201011092000135CF82E090E076
:10046000ADCF88E090E0AACF81E090E0A7CF80E216
:1004700090E0A4CF80E090E1A1CF86E08A8323CFF3
:10048000CF93DF93CDB7DEB728970FB6F894DEBFD2
:100490000FBECDBF80913B01843089F582E080930F
:1004A000E9008091E80082FF12C08091E80085FF9A
:1004B00009C050E040E067E070E0CE010196BCD09A
:1004C0008111F7CF8091E8008B778093E80081E07D
:1004D0008093E9008091E80080FF11C0CE01019671
:1004E00084DE50E040E068E070E0CE01019656D036
:1004F0008111F7CF8091E8008E778093E8002896ED
:100500000FB6F894DEBF0FBECDBFDF91CF91089537
:100510003ADE7894B5DF5CD4FDCF9C01DA01832FFD
:10052000992783309105B9F060F48130910561F12C
:100530000297E1F489E290E02CEB30E02D933C93BC
:1005400008958132910529F1829781F486E590E042
:1005500027EF30E0F3CFC9019927213061F08230D5
:10056000910579F0E8EBF0E0892B39F090E080E03C
:1005700030E020E0E3CFEAE9F0E0849190E09F01F1
:10058000DDCFE4E7F0E0F9CF82E190E025EE30E066
:10059000D5CF89E090E02EEC30E0D0CFAF92BF9283
:1005A000CF92DF92FF920F931F93CF93DF936C0153
:1005B000EB018A0195D1F82E811124C00115110596
:1005C00039F0F80180819181C81BD90BC80ED91E62
:1005D000B12CA12C2097B1F08091E80085FD22C0BC
:1005E0008091E8008E778093E800F2D30115110521
:1005F000A1F0F80180819181A80EB91EB182A0827C
:1006000085E0F82E8F2DDF91CF911F910F91FF90F4
:10061000DF90CF90BF90AF90089562D18823D1F240
:10062000F82EF0CFF60181916F018093F1002197B0
:10063000FFEFAF1ABF0ACECFAF92BF92CF92DF9239
:10064000FF920F931F93CF93DF936C01EB018A010D
:1006500047D1F82E811124C00115110539F0F80198
:1006600080819181C81BD90BC80ED91EB12CA12C39
:100670002097B1F08091E80085FD22C08091E800CC
:100680008B778093E800A4D301151105A1F0F80140
:1006900080819181A80EB91EB182A08285E0F82EDA
:1006A0008F2DDF91CF911F910F91FF90DF90CF9011
:1006B000BF90AF90089514D18823D1F2F82EF0CFD7
:1006C0008091F100F60181936F012197FFEFAF1A3E
:1006D000BF0ACECFFC01CB012091420130914301F2
:1006E0002617370790F0009729F42091E8002E771D
:1006F0002093E80040E0009751F4411108C0809138
:10070000E80082FF30C080E00895C901F3CF209156
:100710003B012223A1F12530A1F12091E80023FD26
:100720002CC02091E80022FDEACF2091E80020FFB4
:10073000E2CF2091F20030E0009719F0203431052B
:1007400058F041E02034310509F040E02091E80004
:100750002E772093E800CFCF41914093F10001978D
:100760002F5F3F4FE9CF80913B01882341F08530D7
:1007700041F08091E80083FFC2CF81E0089582E0DC
:10078000089583E00895FC01CB012091420130914E
:1007900043012617370790F0009729F42091E800CD
:1007A0002E772093E80040E0009751F4411108C0F3
:1007B0008091E80082FF31C080E00895C901F3CF45
:1007C00020913B012223A9F12530A9F12091E800D5
:1007D00023FD2DC02091E80022FDEACF2091E80002
:1007E00020FFE2CF2091F20030E0009719F0203492
:1007F000310558F041E02034310509F040E0209106
:10080000E8002E772093E800CFCF44914093F10089
:10081000319601972F5F3F4FE8CF80913B018823AE
:1008200041F0853041F08091E80083FFC1CF81E045
:10083000089582E0089583E00895982F953028F078
:100840008F708093E90081E008959093E900242F50
:10085000762F50E0981731F07091EC002091ED0068
:100860005091F00021FD02C09F5FE8CF3091EB0076
:100870003E7F3093EB003091ED003D7F3093ED00F3
:100880003091EB0031603093EB007093EC002093DB
:10089000ED005093F0002091EE0027FDE5CF80E0C1
:1008A000089580913C0187FF13C08091E80082FF8A
:1008B00006C08091E8008B778093E80004C08091A7
:1008C0003B018111F2CF089580913B018823D9F338
:1008D0008091E80080FFF8CF8091E8008E77ECCF20
:1008E0002091E4003091E50095E6A9012091EC000B
:1008F000822F817020FF06C08091E80080FF06C033
:1009000080E008952091E80022FD1AC080913B010B
:10091000882389F0853089F08091EB0085FD0FC038
:100920002091E4003091E50042175307F9F291500D
:10093000E1F684E0089582E0089583E0089581E07F
:10094000089541D043D08091D8008F778093D8000C
:100950008091D80080688093D8008091D8008F7DE6
:100960008093D80084E089BD86E089BD09B400FE8B
:10097000FDCF10923B011092370110923901109275
:10098000380142E360E080E058DF8091E1008E7F33
:100990008093E1008091E20081608093E200809189
:1009A000E20088608093E2008091E0008E7F809377
:1009B000E0000895E3E6F0E080818E7F808381E0AF
:1009C00080933A01BECF1092E20008951092E100A8
:1009D00008951F920F920FB60F9211242F933F93F9
:1009E0004F935F936F937F938F939F93AF93BF9337
:1009F000EF93FF938091E10082FF0AC08091E200B3
:100A000082FF06C08091E1008B7F8093E100DFD1FF
:100A10008091E10080FF17C08091E20080FF13C049
:100A20008091E2008E7F8093E2008091E2008061FD
:100A30008093E2008091D80080628093D80019BC36
:100A400010923B01B9DB8091E10084FF27C08091C7
:100A5000E20084FF23C084E089BD86E089BD09B43B
:100A600000FEFDCF8091D8008F7D8093D8008091CB
:100A7000E1008F7E8093E1008091E2008F7E809381
:100A8000E2008091E20081608093E2008091370172
:100A90008823D9F184E080933B018DDB8091E100D4
:100AA00083FF22C08091E20083FF1EC08091E1009D
:100AB000877F8093E10082E080933B0110923701B1
:100AC0008091E1008E7F8093E1008091E2008E7F33
:100AD0008093E2008091E20080618093E20042E333
:100AE00060E080E0AADE73D1FF91EF91BF91AF91FA
:100AF0009F918F917F916F915F914F913F912F9136
:100B00000F900FBE0F901F9018958091E30087FD06
:100B100002C081E0C0CF83E0BECF1F93CF93DF93AD
:100B2000CDB7DEB7AA970FB6F894DEBF0FBECDBF24
:100B30008CE391E0FC0101962091F100208321E0FB
:100B400084349207B9F741DB8091E80083FF10C03D
:100B500080913C0190913D01953009F4C2C000F5AF
:100B6000292F2D7F213009F489C0992309F45EC013
:100B70008091E80083FF0AC08091E800877F80931E
:100B8000E8008091EB0080628093EB00AA960FB69C
:100B9000F894DEBF0FBECDBFDF91CF911F910895B6
:100BA000983009F4D5C0993009F4DFC0963001F7C8
:100BB00080588230E8F680913E0190913F018C3D53
:100BC00023E0920709F0AFC083E08A838AE2898339
:100BD0004FB7F894DE01139620E03EE051E2E32F98
:100BE000F0E050935700E49120FF03C0E295EF70CE
:100BF0003F5FEF708E2F90E0EA3008F492C0C79606
:100C00008D939D932F5F243151F74FBF8091E80062
:100C1000877F8093E8006AE270E0CE0101965ADD9A
:100C20008091E8008B778093E800A2CF803899F01C
:100C3000823809F09DCF809140018F70853008F097
:100C400097CF8093E9008091EB0085FB882780F99E
:100C50001092E90006C080913801909139019111FC
:100C600082609091E800977F9093E8008093F10074
:100C70001092F1008091E8008E77A5C0882309F4D6
:100C800092C0823009F074CF80913E01811196C0EC
:100C9000809140018F702FEF280F243008F068CF2B
:100CA0008093E9002091EB0020FF88C0933031F45D
:100CB0008091EB0080628093EB0080C09091EB000C
:100CC00090619093EB0021E030E001C0220F8A9503
:100CD000EAF72093EA001092EA008091EB00886026
:100CE000EACF811145CF10913E011F778091E3003B
:100CF0008078812B8093E3008091E800877F809348
:100D0000E800CFDD8091E80080FFFCCF8091E30018
:100D100080688093E30082E0111183E080933B01BF
:100D200027CFC0966DCF6091400170914101AE0117
:100D30004F5F5F4FF2DBBC01892B09F419CF809123
:100D4000E800877F8093E80089819A811CDD68CF65
:100D5000803809F00DCF8091E800877F8093E8000C
:100D6000809137018093F10085CF811101CF90915F
:100D70003E01923008F0FCCE8091E800877F80939E
:100D8000E800909337018DDD80913701882311F0C1
:100D900084E005C08091E30087FDFACF81E0809375
:100DA0003B010BDAE5CE80913E01813009F0E0CEC7
:100DB00081E0933009F080E0809339011092E900DE
:100DC0008091E800877F8093E8006BDDD1CE0895A5
:100DD000CF9380913B01882399F0C091E900CF70B7
:100DE0009091EC00892F817090FD80E8C82B1092C3
:100DF000E9008091E80083FD90DECF70C093E900A8
:100E0000CF9108950024552704C0080E591F880F5C
:100E1000991F009729F076956795B8F37105B9F792
:0A0E2000802D952F0895F894FFCF60
:100E2A008000800080008000140000130000100081
:100E3A00001B00001902001302001A02001302002C
:040E4A001C64000024
:00000001FF
