:10000000A6C00000BFC00000BDC00000BBC0000013
:10001000B9C00000B7C00000B5C00000B3C0000008
:10002000B1C00000AFC00000ADC00000C1C40000FE
:10003000A9C00000A7C00000A5C00000A3C0000028
:10004000A1C000009FC000009DC000009BC0000038
:1000500099C0000097C0000095C0000093C0000048
:1000600091C000008FC000008DC000008BC0000058
:1000700089C00000240350004F004B004B00450096
:100080004E00200043004F004E00540052004F002D
:100090004C004C004500520000001C0348004F007B
:1000A00052004900200043004F002E002C004C005D
:1000B000540044002E000000040309040902290032
:1000C00001010080FA090400000203000000092178
:1000D0001101000122560007050203400005070533
:1000E000810340000512010002000000400D0F9244
:1000F0000000010102000105010905A1011500250B
:100100000135004501750195100509190129108176
:100110000205012507463B0175049501651409395F
:10012000814265009501810126FF0046FF000930EC
:100130000931093209357508950481020600FF0965
:1001400020950181020A212695089102C000112400
:100150001FBECFEFD2E0DEBFCDBF11E0A0E0B1E027
:10016000E8E0FEE002C005900D92AE31B107D9F78C
:1001700021E0AEE1B1E001C01D92AE33B207E1F77C
:10018000B6D140C63DCF84B7877F84BF0FB6F89401
:10019000A895809160008861809360001092600053
:1001A0000FBE80E890E00FB6F894809361009093C2
:1001B00061000FBEEEC30895089542E360EC82E053
:1001C0002BD342E361EC81E027C3089583E090E004
:1001D0000895CF93DF93EC0188E0FE01982F1192F0
:1001E0009A95E9F78A83809106018B8380910401B7
:1001F0008C83809102018D83809100018E83809198
:1002000026019091270118161906A4F488E0E9E266
:10021000F1E0DE0101900D928A95E1F780912601CF
:100220009091270101979093270180932601DF91F8
:10023000CF91089580912801882369F08230A1F040
:1002400088E0FE01A9E2B1E001900D928A95E1F704
:1002500082E090E0E8CFBADF90931F0180931E0107
:1002600082E080932801ECCF8091220190912301BC
:1002700063E070E0B6D5FC01E85FFE4F80818C3012
:1002800009F4BEC008F06BC0863009F4A5C008F0C0
:100290004FC0833009F449C008F041C0813009F4EF
:1002A00095C0823009F496C0882309F48DC0E0918E
:1002B0002001F09121013196F0932101E09320017A
:1002C0002091220130912301C90163E070E089D5BA
:1002D000DC01A85FBE4F11968D919C918E179F07F0
:1002E00050F42F5F3F4F309323012093220110924F
:1002F0002101109220018091220190912301079702
:100300000CF49ECF80911E0190911F0190932301C8
:1003100080932201109221011092200191CF84300C
:1003200009F457C0853019F61C828FEF8B83BFCF3D
:10033000893009F457C058F4873009F450C0883028
:1003400009F0B5CF1092050110920401B0CF8A30A8
:1003500009F04FC01092070110920601A8CF833117
:1003600009F46CC0D8F4803109F463C070F48E30A5
:1003700009F44DC08F3009F451C08D3009F097CF8A
:10038000109203011092020192CF813109F45EC0F4
:10039000823109F08CCF81E090E052C0873109F4BE
:1003A00058C048F4843109F44EC0863109F07FCF3B
:1003B00080E290E045C0883109F44EC0893109F0EF
:1003C00076CF86E08A8373CF1C8271CF8FEF8C83C8
:1003D0006ECF1C821B826BCF8FEF8C83FBCF8FEF96
:1003E0008C83A4CF8FEF90E090930501809304015C
:1003F0005ECF8FEF90E0909307018093060157CF77
:1004000080E890E09093070180930601EDCF8FEF95
:1004100090E0909303018093020149CF80E890E03F
:100420009093030180930201909301018093000156
:100430003ECF109201011092000139CF84E090E08C
:100440009983888334CF82E090E0FACF88E090E00F
:10045000F7CF80E092E0F4CF80E090E1F1CFCF934E
:10046000DF93CDB7DEB728970FB6F894DEBF0FBE87
:10047000CDBF80913501843089F582E08093E90019
:100480008091E80082FF12C08091E80085FF09C0DA
:1004900050E040E067E070E0CE010196BCD08111F1
:1004A000F7CF8091E8008B778093E80081E080931C
:1004B000E9008091E80080FF11C0CE01019689DE3D
:1004C00050E040E068E070E0CE01019656D0811126
:1004D000F7CF8091E8008E778093E80028960FB6DA
:1004E000F894DEBF0FBECDBFDF91CF9108954BDEF4
:1004F0007894B5DF5CD4FDCF9C01DA01832F992776
:1005000083309105B9F060F48130910561F1029773
:10051000E1F489E290E02CEB30E02D933C930895D8
:100520008132910529F1829781F486E590E027EFE9
:1005300030E0F3CFC9019927213061F08230910575
:1005400079F0E8EBF0E0892B39F090E080E030E0E2
:1005500020E0E3CFEAE9F0E0849190E09F01DDCF75
:10056000E4E7F0E0F9CF82E190E025EE30E0D5CF8E
:1005700089E090E02EEC30E0D0CFAF92BF92CF92E6
:10058000DF92FF920F931F93CF93DF936C01EB01E8
:100590008A0195D1F82E811124C00115110539F079
:1005A000F80180819181C81BD90BC80ED91EB12CCE
:1005B000A12C2097B1F08091E80085FD22C08091A8
:1005C000E8008E778093E800F2D301151105A1F0C1
:1005D000F80180819181A80EB91EB182A08285E0C8
:1005E000F82E8F2DDF91CF911F910F91FF90DF900B
:1005F000CF90BF90AF90089562D18823D1F2F82EAA
:10060000F0CFF60181916F018093F1002197FFEF08
:10061000AF1ABF0ACECFAF92BF92CF92DF92FF92B6
:100620000F931F93CF93DF936C01EB018A0147D1A6
:10063000F82E811124C00115110539F0F8018081CF
:100640009181C81BD90BC80ED91EB12CA12C2097A3
:10065000B1F08091E80085FD22C08091E8008B77A1
:100660008093E800A4D301151105A1F0F801808161
:100670009181A80EB91EB182A08285E0F82E8F2D3F
:10068000DF91CF911F910F91FF90DF90CF90BF909E
:10069000AF90089514D18823D1F2F82EF0CF809135
:1006A000F100F60181936F012197FFEFAF1ABF0AA6
:1006B000CECFFC01CB0120913C0130913D012617AA
:1006C000370790F0009729F42091E8002E772093C7
:1006D000E80040E0009751F4411108C08091E80023
:1006E00082FF30C080E00895C901F3CF2091350129
:1006F0002223A1F12530A1F12091E80023FD2CC097
:100700002091E80022FDEACF2091E80020FFE2CF0F
:100710002091F20030E0009719F02034310558F0B4
:1007200041E02034310509F040E02091E8002E77C7
:100730002093E800CFCF41914093F10001972F5FC4
:100740003F4FE9CF80913501882341F0853041F05A
:100750008091E80083FFC2CF81E0089582E0089590
:1007600083E00895FC01CB0120913C0130913D01D3
:100770002617370790F0009729F42091E8002E778C
:100780002093E80040E0009751F4411108C08091A7
:10079000E80082FF31C080E00895C901F3CF2091C5
:1007A00035012223A9F12530A9F12091E80023FD8C
:1007B0002DC02091E80022FDEACF2091E80020FF23
:1007C000E2CF2091F20030E0009719F0203431059B
:1007D00058F041E02034310509F040E02091E80074
:1007E0002E772093E800CFCF44914093F1003196CB
:1007F00001972F5F3F4FE8CF80913501882341F06B
:10080000853041F08091E80083FFC1CF81E00895F9
:1008100082E0089583E00895982F953028F08F7036
:100820008093E90081E008959093E900242F762FCA
:1008300050E0981731F07091EC002091ED0050914C
:10084000F00021FD02C09F5FE8CF3091EB003E7FBA
:100850003093EB003091ED003D7F3093ED0030910F
:10086000EB0031603093EB007093EC002093ED00CF
:100870005093F0002091EE0027FDE5CF80E0089531
:100880008091360187FF13C08091E80082FF06C087
:100890008091E8008B778093E80004C08091350157
:1008A0008111F2CF0895809135018823D9F3809189
:1008B000E80080FFF8CF8091E8008E77ECCF2091A0
:1008C000E4003091E50095E6A9012091EC00822F2B
:1008D000817020FF06C08091E80080FF06C080E0A4
:1008E00008952091E80022FD1AC0809135018823E7
:1008F00089F0853089F08091EB0085FD0FC0209153
:10090000E4003091E50042175307F9F29150E1F607
:1009100084E0089582E0089583E0089581E00895D9
:1009200041D043D08091D8008F778093D8008091B8
:10093000D80080688093D8008091D8008F7D809304
:10094000D80084E089BD86E089BD09B400FEFDCFF2
:100950001092350110923101109233011092320140
:1009600042E360E080E058DF8091E1008E7F809379
:10097000E1008091E20081608093E2008091E200DA
:1009800088608093E2008091E0008E7F8093E00099
:100990000895E3E6F0E080818E7F808381E080939C
:1009A0003401BECF1092E20008951092E100089544
:1009B0001F920F920FB60F9211242F933F934F93D4
:1009C0005F936F937F938F939F93AF93BF93EF93B7
:1009D000FF938091E10082FF0AC08091E20082FFD4
:1009E00006C08091E1008B7F8093E100DFD1809190
:1009F000E10080FF17C08091E20080FF13C080916A
:100A0000E2008E7F8093E2008091E200806180931B
:100A1000E2008091D80080628093D80019BC1092C7
:100A20003501CADB8091E10084FF27C08091E2009C
:100A300084FF23C084E089BD86E089BD09B400FE3F
:100A4000FDCF8091D8008F7D8093D8008091E10008
:100A50008F7E8093E1008091E2008F7E8093E200A0
:100A60008091E20081608093E200809131018823CF
:100A7000D9F184E0809335019EDB8091E10083FF12
:100A800022C08091E20083FF1EC08091E100877F39
:100A90008093E10082E080933501109231018091D2
:100AA000E1008E7F8093E1008091E2008E7F809351
:100AB000E2008091E20080618093E20042E360E026
:100AC00080E0AADE73D1FF91EF91BF91AF919F912A
:100AD0008F917F916F915F914F913F912F910F90E7
:100AE0000FBE0F901F9018958091E30087FD02C004
:100AF00081E0C0CF83E0BECF1F93CF93DF93CDB70C
:100B0000DEB7AA970FB6F894DEBF0FBECDBF86E35F
:100B100091E0FC0101962091F100208321E08E33C9
:100B20009207B9F752DB8091E80083FF10C08091F3
:100B3000360190913701953009F4C2C000F5292F94
:100B40002D7F213009F489C0992309F45EC080917A
:100B5000E80083FF0AC08091E800877F8093E80067
:100B60008091EB0080628093EB00AA960FB6F89418
:100B7000DEBF0FBECDBFDF91CF911F91089598309A
:100B800009F4D5C0993009F4DFC0963001F78058D8
:100B90008230E8F680913801909139018C3D23E054
:100BA000920709F0AFC083E08A838AE289834FB756
:100BB000F894DE01139620E03EE051E2E32FF0E0EE
:100BC00050935700E49120FF03C0E295EF703F5F20
:100BD000EF708E2F90E0EA3008F492C0C7968D93A4
:100BE0009D932F5F243151F74FBF8091E800877F9D
:100BF0008093E8006AE270E0CE0101965ADD8091B0
:100C0000E8008B778093E800A2CF803899F0823893
:100C100009F09DCF80913A018F70853008F097CF11
:100C20008093E9008091EB0085FB882780F9109282
:100C3000E90006C0809132019091330191118260E8
:100C40009091E800977F9093E8008093F1001092D4
:100C5000F1008091E8008E77A5C0882309F492C046
:100C6000823009F074CF80913801811196C0809153
:100C70003A018F702FEF280F243008F068CF80934F
:100C8000E9002091EB0020FF88C0933031F480917F
:100C9000EB0080628093EB0080C09091EB0090614C
:100CA0009093EB0021E030E001C0220F8A95EAF733
:100CB0002093EA001092EA008091EB008860EACF6E
:100CC000811145CF109138011F778091E300807822
:100CD000812B8093E3008091E800877F8093E80078
:100CE000CFDD8091E80080FFFCCF8091E300806839
:100CF0008093E30082E0111183E08093350127CFD8
:100D0000C0966DCF60913A0170913B01AE014F5F8B
:100D10005F4FF2DBBC01892B09F419CF8091E80009
:100D2000877F8093E80089819A811CDD68CF8038B5
:100D300009F00DCF8091E800877F8093E8008091D3
:100D400031018093F10085CF811101CF909138015D
:100D5000923008F0FCCE8091E800877F8093E80015
:100D6000909331018DDD80913101882311F084E071
:100D700005C08091E30087FDFACF81E080933501C3
:100D80001CDAE5CE80913801813009F0E0CE81E0B7
:100D9000933009F080E0809333011092E900809154
:100DA000E800877F8093E8006BDDD1CE0895CF9374
:100DB00080913501882399F0C091E900CF7090911E
:100DC000EC00892F817090FD80E8C82B1092E9001B
:100DD0008091E80083FD90DECF70C093E900CF9151
:100DE00008950024552704C0080E591F880F991F25
:100DF000009729F076956795B8F37105B9F7802DBE
:080E0000952F0895F894FFCF2F
:100E080080008000800080001400001300001000A3
:0E0E1800001A00001902001302001B64000003
:00000001FF
